{
  "_format": "hh-sol-artifact-1",
  "contractName": "PollutionTracker",
  "sourceName": "contracts/PollutionTracker.sol",
  "abi": [
    {
      "inputs": [],
      "stateMutability": "nonpayable",
      "type": "constructor"
    },
    {
      "anonymous": false,
      "inputs": [
        {
          "indexed": true,
          "internalType": "uint256",
          "name": "id",
          "type": "uint256"
        },
        {
          "indexed": false,
          "internalType": "string",
          "name": "zone",
          "type": "string"
        },
        {
          "indexed": false,
          "internalType": "uint256",
          "name": "aqi",
          "type": "uint256"
        },
        {
          "indexed": false,
          "internalType": "string",
          "name": "riskLevel",
          "type": "string"
        },
        {
          "indexed": false,
          "internalType": "uint256",
          "name": "timestamp",
          "type": "uint256"
        },
        {
          "indexed": false,
          "internalType": "string",
          "name": "dataHash",
          "type": "string"
        }
      ],
      "name": "RecordAdded",
      "type": "event"
    },
    {
      "inputs": [
        {
          "internalType": "string",
          "name": "_zone",
          "type": "string"
        },
        {
          "internalType": "uint256",
          "name": "_aqi",
          "type": "uint256"
        },
        {
          "internalType": "string",
          "name": "_riskLevel",
          "type": "string"
        },
        {
          "internalType": "uint256",
          "name": "_timestamp",
          "type": "uint256"
        },
        {
          "internalType": "string",
          "name": "_dataHash",
          "type": "string"
        }
      ],
      "name": "addRecord",
      "outputs": [],
      "stateMutability": "nonpayable",
      "type": "function"
    },
    {
      "inputs": [],
      "name": "admin",
      "outputs": [
        {
          "internalType": "address",
          "name": "",
          "type": "address"
        }
      ],
      "stateMutability": "view",
      "type": "function"
    },
    {
      "inputs": [],
      "name": "getAllRecords",
      "outputs": [
        {
          "components": [
            {
              "internalType": "string",
              "name": "zone",
              "type": "string"
            },
            {
              "internalType": "uint256",
              "name": "aqi",
              "type": "uint256"
            },
            {
              "internalType": "string",
              "name": "riskLevel",
              "type": "string"
            },
            {
              "internalType": "uint256",
              "name": "timestamp",
              "type": "uint256"
            },
            {
              "internalType": "string",
              "name": "dataHash",
              "type": "string"
            }
          ],
          "internalType": "struct PollutionTracker.Record[]",
          "name": "",
          "type": "tuple[]"
        }
      ],
      "stateMutability": "view",
      "type": "function"
    },
    {
      "inputs": [
        {
          "internalType": "uint256",
          "name": "_index",
          "type": "uint256"
        }
      ],
      "name": "getRecord",
      "outputs": [
        {
          "components": [
            {
              "internalType": "string",
              "name": "zone",
              "type": "string"
            },
            {
              "internalType": "uint256",
              "name": "aqi",
              "type": "uint256"
            },
            {
              "internalType": "string",
              "name": "riskLevel",
              "type": "string"
            },
            {
              "internalType": "uint256",
              "name": "timestamp",
              "type": "uint256"
            },
            {
              "internalType": "string",
              "name": "dataHash",
              "type": "string"
            }
          ],
          "internalType": "struct PollutionTracker.Record",
          "name": "",
          "type": "tuple"
        }
      ],
      "stateMutability": "view",
      "type": "function"
    },
    {
      "inputs": [],
      "name": "totalRecords",
      "outputs": [
        {
          "internalType": "uint256",
          "name": "",
          "type": "uint256"
        }
      ],
      "stateMutability": "view",
      "type": "function"
    },
    {
      "inputs": [
        {
          "internalType": "uint256",
          "name": "_index",
          "type": "uint256"
        },
        {
          "internalType": "string",
          "name": "_hash",
          "type": "string"
        }
      ],
      "name": "verifyHash",
      "outputs": [
        {
          "internalType": "bool",
          "name": "",
          "type": "bool"
        }
      ],
      "stateMutability": "view",
      "type": "function"
    }
  ],
  "bytecode": "0x6080604052348015600f57600080fd5b50336000806101000a81548173ffffffffffffffffffffffffffffffffffffffff021916908373ffffffffffffffffffffffffffffffffffffffff1602179055506115268061005f6000396000f3fe608060405234801561001057600080fd5b50600436106100625760003560e01c806303e9e60914610067578063125f89741461009757806375c6e781146100b55780639be6c2a9146100e5578063a7f9fe7214610101578063f851a4401461011f575b600080fd5b610081600480360381019061007c919061097e565b61013d565b60405161008e9190610ace565b60405180910390f35b61009f61038a565b6040516100ac9190610aff565b60405180910390f35b6100cf60048036038101906100ca9190610b7f565b610397565b6040516100dc9190610bfa565b60405180910390f35b6100ff60048036038101906100fa9190610c15565b61045e565b005b6101096106c2565b6040516101169190610e37565b60405180910390f35b6101276108eb565b6040516101349190610e9a565b60405180910390f35b61014561090f565b600180549050821061018c576040517f08c379a000000000000000000000000000000000000000000000000000000000815260040161018390610f12565b60405180910390fd5b600182815481106101a05761019f610f32565b5b90600052602060002090600502016040518060a00160405290816000820180546101c990610f90565b80601f01602080910402602001604051908101604052809291908181526020018280546101f590610f90565b80156102425780601f1061021757610100808354040283529160200191610242565b820191906000526020600020905b81548152906001019060200180831161022557829003601f168201915b505050505081526020016001820154815260200160028201805461026590610f90565b80601f016020809104026020016040519081016040528092919081815260200182805461029190610f90565b80156102de5780601f106102b3576101008083540402835291602001916102de565b820191906000526020600020905b8154815290600101906020018083116102c157829003601f168201915b505050505081526020016003820154815260200160048201805461030190610f90565b80601f016020809104026020016040519081016040528092919081815260200182805461032d90610f90565b801561037a5780601f1061034f5761010080835404028352916020019161037a565b820191906000526020600020905b81548152906001019060200180831161035d57829003601f168201915b5050505050815250509050919050565b6000600180549050905090565b600060018054905084106103e0576040517f08c379a00000000000000000000000000000000000000000000000000000000081526004016103d790610f12565b60405180910390fd5b82826040516020016103f3929190611000565b604051602081830303815290604052805190602001206001858154811061041d5761041c610f32565b5b906000526020600020906005020160040160405160200161043e91906110b1565b604051602081830303815290604052805190602001201490509392505050565b60008054906101000a900473ffffffffffffffffffffffffffffffffffffffff1673ffffffffffffffffffffffffffffffffffffffff163373ffffffffffffffffffffffffffffffffffffffff16146104ec576040517f08c379a00000000000000000000000000000000000000000000000000000000081526004016104e39061113a565b60405180910390fd5b60016040518060a001604052808a8a8080601f016020809104026020016040519081016040528093929190818152602001838380828437600081840152601f19601f82011690508083019250505050505050815260200188815260200187878080601f016020809104026020016040519081016040528093929190818152602001838380828437600081840152601f19601f82011690508083019250505050505050815260200185815260200184848080601f016020809104026020016040519081016040528093929190818152602001838380828437600081840152601f19601f820116905080830192505050505050508152509080600181540180825580915050600190039060005260206000209060050201600090919091909150600082015181600001908161061f9190611320565b5060208201518160010155604082015181600201908161063f9190611320565b5060608201518160030155608082015181600401908161065f9190611320565b505050600180805490506106739190611421565b7f716dcf3132c774eeb2c0d483d694ac1f92674691237ee21d228cd3b05bb59ebb89898989898989896040516106b0989796959493929190611482565b60405180910390a25050505050505050565b60606001805480602002602001604051908101604052809291908181526020016000905b828210156108e257838290600052602060002090600502016040518060a001604052908160008201805461071990610f90565b80601f016020809104026020016040519081016040528092919081815260200182805461074590610f90565b80156107925780601f1061076757610100808354040283529160200191610792565b820191906000526020600020905b81548152906001019060200180831161077557829003601f168201915b50505050508152602001600182015481526020016002820180546107b590610f90565b80601f01602080910402602001604051908101604052809291908181526020018280546107e190610f90565b801561082e5780601f106108035761010080835404028352916020019161082e565b820191906000526020600020905b81548152906001019060200180831161081157829003601f168201915b505050505081526020016003820154815260200160048201805461085190610f90565b80601f016020809104026020016040519081016040528092919081815260200182805461087d90610f90565b80156108ca5780601f1061089f576101008083540402835291602001916108ca565b820191906000526020600020905b8154815290600101906020018083116108ad57829003601f168201915b505050505081525050815260200190600101906106e6565b50505050905090565b60008054906101000a900473ffffffffffffffffffffffffffffffffffffffff1681565b6040518060a0016040528060608152602001600081526020016060815260200160008152602001606081525090565b600080fd5b600080fd5b6000819050919050565b61095b81610948565b811461096657600080fd5b50565b60008135905061097881610952565b92915050565b6000602082840312156109945761099361093e565b5b60006109a284828501610969565b91505092915050565b600081519050919050565b600082825260208201905092915050565b60005b838110156109e55780820151818401526020810190506109ca565b60008484015250505050565b6000601f19601f8301169050919050565b6000610a0d826109ab565b610a1781856109b6565b9350610a278185602086016109c7565b610a30816109f1565b840191505092915050565b610a4481610948565b82525050565b600060a0830160008301518482036000860152610a678282610a02565b9150506020830151610a7c6020860182610a3b565b5060408301518482036040860152610a948282610a02565b9150506060830151610aa96060860182610a3b565b5060808301518482036080860152610ac18282610a02565b9150508091505092915050565b60006020820190508181036000830152610ae88184610a4a565b905092915050565b610af981610948565b82525050565b6000602082019050610b146000830184610af0565b92915050565b600080fd5b600080fd5b600080fd5b60008083601f840112610b3f57610b3e610b1a565b5b8235905067ffffffffffffffff811115610b5c57610b5b610b1f565b5b602083019150836001820283011115610b7857610b77610b24565b5b9250929050565b600080600060408486031215610b9857610b9761093e565b5b6000610ba686828701610969565b935050602084013567ffffffffffffffff811115610bc757610bc6610943565b5b610bd386828701610b29565b92509250509250925092565b60008115159050919050565b610bf481610bdf565b82525050565b6000602082019050610c0f6000830184610beb565b92915050565b60008060008060008060008060a0898b031215610c3557610c3461093e565b5b600089013567ffffffffffffffff811115610c5357610c52610943565b5b610c5f8b828c01610b29565b98509850506020610c728b828c01610969565b965050604089013567ffffffffffffffff811115610c9357610c92610943565b5b610c9f8b828c01610b29565b95509550506060610cb28b828c01610969565b935050608089013567ffffffffffffffff811115610cd357610cd2610943565b5b610cdf8b828c01610b29565b92509250509295985092959890939650565b600081519050919050565b600082825260208201905092915050565b6000819050602082019050919050565b600060a0830160008301518482036000860152610d3a8282610a02565b9150506020830151610d4f6020860182610a3b565b5060408301518482036040860152610d678282610a02565b9150506060830151610d7c6060860182610a3b565b5060808301518482036080860152610d948282610a02565b9150508091505092915050565b6000610dad8383610d1d565b905092915050565b6000602082019050919050565b6000610dcd82610cf1565b610dd78185610cfc565b935083602082028501610de985610d0d565b8060005b85811015610e255784840389528151610e068582610da1565b9450610e1183610db5565b925060208a01995050600181019050610ded565b50829750879550505050505092915050565b60006020820190508181036000830152610e518184610dc2565b905092915050565b600073ffffffffffffffffffffffffffffffffffffffff82169050919050565b6000610e8482610e59565b9050919050565b610e9481610e79565b82525050565b6000602082019050610eaf6000830184610e8b565b92915050565b600082825260208201905092915050565b7f5265636f726420646f6573206e6f742065786973740000000000000000000000600082015250565b6000610efc601583610eb5565b9150610f0782610ec6565b602082019050919050565b60006020820190508181036000830152610f2b81610eef565b9050919050565b7f4e487b7100000000000000000000000000000000000000000000000000000000600052603260045260246000fd5b7f4e487b7100000000000000000000000000000000000000000000000000000000600052602260045260246000fd5b60006002820490506001821680610fa857607f821691505b602082108103610fbb57610fba610f61565b5b50919050565b600081905092915050565b82818337600083830152505050565b6000610fe78385610fc1565b9350610ff4838584610fcc565b82840190509392505050565b600061100d828486610fdb565b91508190509392505050565b60008190508160005260206000209050919050565b6000815461103b81610f90565b6110458186610fc1565b945060018216600081146110605760018114611075576110a8565b60ff19831686528115158202860193506110a8565b61107e85611019565b60005b838110156110a057815481890152600182019150602081019050611081565b838801955050505b50505092915050565b60006110bd828461102e565b915081905092915050565b7f4f6e6c792061646d696e2063616e20706572666f726d2074686973206163746960008201527f6f6e000000000000000000000000000000000000000000000000000000000000602082015250565b6000611124602283610eb5565b915061112f826110c8565b604082019050919050565b6000602082019050818103600083015261115381611117565b9050919050565b7f4e487b7100000000000000000000000000000000000000000000000000000000600052604160045260246000fd5b60006020601f8301049050919050565b600082821b905092915050565b6000600883026111d67fffffffffffffffffffffffffffffffffffffffffffffffffffffffffffffffff82611199565b6111e08683611199565b95508019841693508086168417925050509392505050565b6000819050919050565b600061121d61121861121384610948565b6111f8565b610948565b9050919050565b6000819050919050565b61123783611202565b61124b61124382611224565b8484546111a6565b825550505050565b600090565b611260611253565b61126b81848461122e565b505050565b5b8181101561128f57611284600082611258565b600181019050611271565b5050565b601f8211156112d4576112a581611019565b6112ae84611189565b810160208510156112bd578190505b6112d16112c985611189565b830182611270565b50505b505050565b600082821c905092915050565b60006112f7600019846008026112d9565b1980831691505092915050565b600061131083836112e6565b9150826002028217905092915050565b611329826109ab565b67ffffffffffffffff8111156113425761134161115a565b5b61134c8254610f90565b611357828285611293565b600060209050601f83116001811461138a5760008415611378578287015190505b6113828582611304565b8655506113ea565b601f19841661139886611019565b60005b828110156113c05784890151825560018201915060208501945060208101905061139b565b868310156113dd57848901516113d9601f8916826112e6565b8355505b6001600288020188555050505b505050505050565b7f4e487b7100000000000000000000000000000000000000000000000000000000600052601160045260246000fd5b600061142c82610948565b915061143783610948565b925082820390508181111561144f5761144e6113f2565b5b92915050565b60006114618385610eb5565b935061146e838584610fcc565b611477836109f1565b840190509392505050565b600060a082019050818103600083015261149d818a8c611455565b90506114ac6020830189610af0565b81810360408301526114bf818789611455565b90506114ce6060830186610af0565b81810360808301526114e1818486611455565b9050999850505050505050505056fea264697066735822122040d7b3ddbebba89070d98dd95aa59de86596b764cc263e1857b772a267fab63864736f6c634300081c0033",
  "linkReferences": {},
  "deployedLinkReferences": {}
}